# 1、命令参数：

```bash
tcpdump 
    -i eth0                                           # 指定监听网卡
    -nn                                               # 显示ip和端口
    -nn 'icmp'                                        # 监听icmp协议(ping)
    -nn 'host 192.168.0.13'                           # 监听指定主机
    -nn 'src 192.168.0.13'                            # 监听来自指定主机的包
    -nn 'dst 192.168.0.13'                            # 监听发往指定主机的包
    -nnA 'port 80'                                    # 监听指定端口
    -nnA 'portrange 80-100'                           # 监听连续的多个端口
    -nnA 'port 80 and src host 192.18.0.13'           # 监听来自指定主机和端口的包
    -nnA '!port 22'                                   # 监听除22端口以外的端口
    -e                                                # 打印mac地址
    -xx                                               # 打印网络包内容

ARP：Address Resolution Protocol，地址解析协议，询问目标IP对应的MAC地址
```

# 2、常见用法：

```bash
# 监听来自或发放指定地址的所有包
sudo tcpdump -i eth1 -nn 'src or dst 10.42.0.23'
# 指定端口
sudo tcpdump -i eth1 -nn 'src or dst 10.42.0.23 and port 4003'

# 监听来自或发放指定地址的icmp(ping)包
sudo tcpdump -i eth1 -nn 'icmp and src or dst 10.42.0.23'
# 只监听来自指定ip的icmp request包
sudo tcpdump -i eth1 -nn 'icmp[icmptype] == icmp-echo and src 10.42.0.23'
# 只监听来自指定ip的icmp reply包
sudo tcpdump -i eth1 -nn 'icmp[icmptype] == icmp-echoreply and src 10.42.0.23'
# 只监听指定id(1234)的icmp报文
sudo tcpdump -i eth1 -nn 'icmp[4:2]=1234 and src 10.42.0.23 and dst 10.42.0.21'

# 监听来自或发放指定地址的arp包
sudo tcpdump -i eth1 -nn 'arp and src or dst 10.42.0.23'
```

# 3、打印含义：

```bash
#
17:42:43.871486 IP 10.42.0.23 > 239.255.0.1: ip-proto-17
#
17:42:43.953094 ARP, Request who-has 10.42.0.24 tell 10.42.0.23, length 28
#
17:42:44.223398 IP 10.42.0.23.49268 > 239.255.0.1.26000: UDP, length 368
#
17:42:44.393770 IP 10.42.0.23.33293 > 239.255.0.1.26000: UDP, bad length 5524 > 1432
# icmp请求(ping)
17:47:31.186347 IP 10.42.0.21 > 10.42.0.22: ICMP echo request, id 5667, seq 1, length 64
# icmp应答(ping)
17:47:31.187494 IP 10.42.0.22 > 10.42.0.21: ICMP echo reply, id 5667, seq 1, length 64
```

## 1)、icmp request/replay报文

```bash
16:07:14.628240 70:b3:d5:20:00:23 > 70:b3:d5:20:00:21, ethertype IPv4 (0x0800), length 98: 10.42.10.23 > 10.42.10.21: ICMP echo request, id 1234, seq 5678, length 64
        0x0000:  70b3 d520 0021 70b3 d520 0023 0800 4500
        0x0010:  0054 0001 0000 4001 5229 0a2a 0a17 0a2a
        0x0020:  0a15 0800 b9dc 04d2 162e 4141 4141 4141
        0x0030:  4141 4141 4141 4141 4141 4141 4141 4141
        0x0040:  4141 4141 4141 4141 4141 4141 4141 4141
        0x0050:  4141 4141 4141 4141 4141 4141 4141 4141
        0x0060:  4141
        ------------------------------------------------
        # 目的mac:70:b3:d5:20:00:21, 源mac:70:b3:d5:20:00:23, 类型:0800(IP)
        0x0000:  70b3 d520 0021 70b3 d520 0023 0800 ****
        # ip版本:4, ip包头长度:5*4=20字节, 服务类型: 00(无含义)
        0x0000:                                     4500
        # ip包总长度：0x0054=84字节，标识：0x0001(用于分片)，标志：0(0b000)未使用/允许分片/无分片，片偏移：0
        # 生存时间：0x40(路由器没转发一次值减一)，协议：0x01(ICMP)，首部校验和：0x5229，源地址：0a.2a.0a.17(10.42.10.23)
        0x0010:  0054 0001 0000 4001 5229 0a2a 0a17 0a2a
        # 目的地址：0a.2a.0a.15(10.42.10.21)
        0x0020:  0a15
        # 类型：0x08(ping请求)，代码：0x00(无含义)，校验和：0xb9dc，标识：0x04d2，序列号：0x162e
        0x0020:  **** 0800 b9dc 04d2 162e **** **** ****
16:07:14.628286 70:b3:d5:20:00:21 > 70:b3:d5:20:00:23, ethertype IPv4 (0x0800), length 98: 10.42.10.21 > 10.42.10.23: ICMP echo reply, id 1234, seq
5678, length 64
        0x0000:  70b3 d520 0023 70b3 d520 0021 0800 4500
        0x0010:  0054 d58e 0000 4001 7c9b 0a2a 0a15 0a2a
        0x0020:  0a17 0000 c1dc 04d2 162e 4141 4141 4141
        0x0030:  4141 4141 4141 4141 4141 4141 4141 4141
        0x0040:  4141 4141 4141 4141 4141 4141 4141 4141
        0x0050:  4141 4141 4141 4141 4141 4141 4141 4141
        0x0060:  4141
```



